:020000040800F2
:10000000500A00208D010008D32200085520000866
:10001000D1220008F9020008F923000800000000BE
:10002000000000000000000000000000D7220008CF
:100030000903000800000000D5220008D9220008AA
:10004000A7010008A7010008A7010008A7010008F0
:10005000A7010008A7010008A7010008A7010008E0
:10006000A7010008A7010008A7010008A7010008D0
:10007000A7010008FD020008A7010008A701000869
:10008000A7010008A7010008A7010008A7010008B0
:10009000A7010008A7010008A7010008A7010008A0
:1000A000E1220008A7010008A7010008A701000835
:1000B000ED220008A7010008A7010008A701000819
:1000C000A7010008A7010008A7010008A701000870
:1000D000A7010008A7010008A7010008ED230008F8
:1000E000A7010008A7010008A701000800F002F816
:1000F00000F03CF80AA090E8000C82448344AAF186
:100100000107DA4501D100F031F8AFF2090EBAE883
:100110000F0013F0010F18BFFB1A43F0010318473B
:100120009C300000BC300000103A24BF78C878C171
:10013000FAD8520724BF30C830C144BF04680C60ED
:10014000704700000023002400250026103A28BF35
:1001500078C1FBD8520728BF30C148BF0B60704739
:100160001FB500F05DF81FBD10B510BD00F06AF8B6
:100170001146FFF7F5FF02F0EFFC00F088F803B43A
:10018000FFF7F2FF03BC00F091F800000948804738
:1001900009480047FEE7FEE7FEE7FEE7FEE7FEE769
:1001A000FEE7FEE7FEE7FEE704480549054A064B81
:1001B00070470000DD220008ED0000085004002018
:1001C000500A002050060020500600204FF0000288
:1001D00000B5134694469646203922BFA0E80C503D
:1001E000A0E80C50B1F12001BFF4F7AF090728BF18
:1001F000A0E80C5048BF0CC05DF804EB890028BF94
:1002000040F8042B08BF704748BF20F8022B11F0BC
:10021000804F18BF00F8012B704770477047704738
:1002200070B5064C7C44064D7D4403E020682044B4
:100230008047241DAC42F9D170BD0000B42F0000EE
:10024000B42F0000754600F02BF8AE460500694655
:10025000534620F00700854618B020B5FFF7A4FFED
:10026000BDE820404FF000064FF000074FF00008B7
:100270004FF0000B21F00701AC46ACE8C009ACE838
:10028000C009ACE8C009ACE8C0098D46704710B59C
:100290000446AFF300802046BDE81040FFF76FBF73
:1002A00000487047F0030020704700000149182003
:1002B000ABBEFEE72600020038B50CA00C4C00686F
:1002C000009000221021204600F088FA4FF47A7343
:1002D00002226946074801F041F801221021204618
:1002E00000F07CFABDE8384002F034B966990000AD
:1002F0000008014080020020FEE70000014800F0F5
:1003000075B80000AC030020704772B6FEE710B568
:1003100090F821100022022905D00421816380F881
:100320002020012010BD01680B6823F00E030B6034
:1003300001680B6823F001030B6090F84030012442
:1003400004FA03F1C36B596080F8214080F8202043
:10035000104610BD10B590F821100024022903D0DA
:100360000421816301243DE001680A6822F00E0245
:100370000A6001680A6822F001020A601A4A0168EC
:10038000914201D1012121E0174A1432914201D159
:1003900010211BE0144A2832914201D1891515E041
:1003A000114A3C32914201D189140FE00E4A503279
:1003B000914202D14FF4803108E00B4A64329142FD
:1003C00002D14FF4801101E04FF08071064A083AE3
:1003D0005160012180F82110002180F82010416B2C
:1003E00001B18847204610BD080002402DE9F05FAA
:1003F000C16B0B6801680A68046C4FF0040C0CFABE
:1004000004FC4A4DDFF828A14A4E4B4FDFF82CB1CF
:10041000DFF82CE11CEA030F2DD05FEA427C2AD5DD
:100420000A68920603D40A6822F004020A6001688E
:10043000A94201D1042119E0514501D1402115E023
:10044000B14202D14FF4806110E0B94202D14FF4C1
:1004500080410BE0594502D14FF4802106E07145FF
:1004600002D14FF4800101E04FF080612F4A083A39
:100470005160C16A3BE04FF0020808FA04F818EA3C
:10048000030F4FF000094FF0010C35D05FEA82787E
:1004900032D50A68920605D40A6822F00A020A6078
:1004A00080F821C00168A94201D1022119E051451B
:1004B00001D1202115E0B14202D14FF4007110E0CA
:1004C000B94202D14FF400510BE0594502D14FF42B
:1004D000003106E0714502D14FF4001101E04FF008
:1004E0000071124A083A516080F82090816A002910
:1004F0001AD0BDE8F05F08470825A5401D4213D07B
:10050000120711D50A6822F00E020A6090F8401016
:10051000C26B0CFA01F15160C0F838C080F821C0FC
:1005200080F82090016BE2E7BDE8F09F08000240F0
:100530001C000240300002404400024058000240CB
:100540006C00024030B528B302C8134A14230A4491
:10055000B2FBF3F29200C263104A82630222427736
:100560000B6843F6F0729343D0E900242243D0E9AC
:1005700002452C432243046922434469224384698F
:1005800022431A430A600021416301224277017726
:10059000084630BD012030BDF8FFFDBF000002401D
:1005A00070B5044690F82000002501280CD00120E9
:1005B00084F8200094F821600020012E06D084F8F1
:1005C00020000225284670BD022070BD022684F856
:1005D0002160A0632068066826F0010606602046B8
:1005E00001F0E2FFE06A00282068016802D041F0D3
:1005F0000E0106E021F0040101602068016841F06D
:100600000A0101602068016841F001010160D9E739
:100610002DE9F84FDFF8A491002409F1040A0AF14A
:10062000040B23464FF00F080BF1040EBEE0012728
:10063000A7403A40BA4272D1DFF884C14D68A5EBB9
:100640000C0665452BD00DDC032D34D005DC35B30D
:10065000012D19D0022D2FD11BE0112D16D0122DF6
:100660002AD119E0B6F5881F19D006DCB6F5803F0F
:1006700015D0B6F5801F1FD111E0B6F5001F0ED0C2
:10068000B6F5041F18D10AE0CB6815E0CB681B1D36
:1006900012E0CB6808330FE0CB680C330CE08B68BA
:1006A0002BB1012B4FF0080303D0476104E0042372
:1006B00002E0076100E00023FF2A01D8064601E0BE
:1006C00000F104064FEA840501D9A5F12005376839
:1006D00008FA05FC27EA0C0703FA05F547EA0507BF
:1006E00037604D68ED0060D5364DAE6946F00106C5
:1006F000AE61AD6924F0030605F001050095324DA9
:100700007719BE68A5072D0F08FA05FC26EA0C0626
:10071000DFF8B8C0604503D14FF0000C17E044E0AB
:10072000DFF8ACC0604502D14FF0010C0FE0DFF8FC
:10073000A4C0604502D14FF0020C08E0DFF898C079
:10074000604502D14FF0030C01E04FF0040C0CFAAD
:1007500005FC4CEA060CC7F808C04D68D9F80060E3
:10076000ED034D4601D5164300E096432E604D68DB
:10077000DAF80060AD03554601D5164300E0964314
:100780002E604D68DBF80060ED025D4601D5164332
:1007900000E096432E604D68DEF80060AD027546BD
:1007A00001D5164300E096432E60641C0A6832FAB5
:1007B00004F57FF43CAFBDE8F88F00000004014071
:1007C000000011100010024000000140000801402C
:1007D000000C014000100140001401400AB1016109
:1007E00070470904FBE7000001488068704700007B
:1007F000B40000200248816802781144816070478B
:10080000B4000020074810B5016841F010010160F4
:10081000032000F075F80F2000F006F800F024F82F
:10082000002010BD0020024070B50D4D04464FF46D
:100830007A712878B1FBF0F00A490968B1FBF0F051
:1008400000F02EFF48B9102C07D200222146501E7E
:1008500000F036F800206C6070BD012070BD000013
:10086000B4000020C00000200C4808B5816941F0A8
:1008700001018161816901F001010091C16941F0CB
:100880008051C161C069064900F0805000904868FD
:1008900020F0E06040F00070486008BD00100240A9
:1008A00000000140002809DB00F01F0201219140F7
:1008B0004009800000F1E020C0F8001170470000FE
:1008C000F0B40E4B1B68C3F30223C3F10704042CDE
:1008D00000D904241D1D072D01D2002300E0DB1EDA
:1008E000012606FA04F56D1E0D409D409E40761EC1
:1008F000164045EA0601F0BC02F0A4B80CED00E099
:10090000064A00F0070110684FF6FF03184040EA5E
:100910000120034908431060704700000CED00E01F
:100920000000FA05014901200862704700000E42EC
:1009300010B5014627A086B01DC88DE81D0029A06E
:10094000294C006804900020012922D0022939D0C6
:1009500010291CD161682268D20118D5C1F38342E5
:10096000C9031DF8020009D5616804AAC1F340411A
:10097000515C1E4AB2FBF1F1484301E01C49484377
:100980006168490203D440000321B0FBF1F006B0D6
:1009900010BD216AC1F30122012A03D1890701D5C3
:1009A000D003F4E7022A05D1616A890702D549F626
:1009B0004040ECE7032AEAD121688903E7D54FF2EA
:1009C0002440E4E700F036F96168C1F38131491C45
:1009D0004900DAE702030405060708090A0B0C0DB3
:1009E0000E0F1010010200000010024000127A00E9
:1009F00000093D002DE9F84304460078344FC00754
:100A000052D0F8690025C00008D4F86940F0805041
:100A1000F861F869012500F0805000902D480168C8
:100A2000C90511D40168804641F480710160FFF767
:100A3000DBFE064604E0FFF7D7FE801B642822D8C1
:100A4000D8F80000C005F6D5386A10F4407020D000
:100A5000A18801F4407181421BD0386A1E490122ED
:100A600020F440700A6000220A603862C00710D08B
:100A7000FFF7BAFE064641F2883807E0FFF7B4FEFA
:100A8000811B414502D90320BDE8F883386A8007FD
:100A9000F4D5386A616820F44070084338621DB1AB
:100AA000F86920F08050F8612078800705D57868D3
:100AB000A16820F44040084378602078C00605D53E
:100AC0007868E16820F48000084378600020DBE764
:100AD0000010024000700040400442422DE9F047FF
:100AE0000D46040067D0DFF81881D8F8000000F048
:100AF0000700A8420CD2D8F8001021F007012943C2
:100B0000C8F80010D8F8000000F00700A84252D141
:100B100020683C4E810712D5400703D5706840F429
:100B2000E06070602078000703D5706840F4605082
:100B300070607068A16820F0F00008437060207851
:100B4000C00727D06068012810D03168022810D073
:100B5000890700292FDA716821F0030101437160D0
:100B6000FFF742FE074641F288390CE031688903FD
:100B7000EFE78901EDE7FFF737FEC11B494502D9D1
:100B80000320BDE8F0877068616800F00C00B0EBEE
:100B9000810FF0D1D8F80010404601F00701A942BA
:100BA0000BD9016821F0070129430160006800F0BA
:100BB0000700A84201D00120E3E72078400705D5CF
:100BC0007068E16820F4E0600843706020780007F6
:100BD00006D57068216920F4605040EAC100706059
:100BE00000F038F87168084AC1F30311515CC8403D
:100BF0000649086006480068FFF716FE0020C0E7B7
:100C00000020024000100240A2310008C000002075
:100C1000B80000200448054900684968044AC1F347
:100C20000221515CC8407047C00000200010024003
:100C3000B23100080448054900684968044AC1F314
:100C4000C221515CC8407047C00000200010024023
:100C5000B231000812A085B00FC88DE80F0014A0B3
:100C6000144B006804905968134811F00C0212D01C
:100C7000042A10D0082A0ED1C1F38342C9031DF8FB
:100C800002000AD5596804AAC1F34041515C0A4ADE
:100C90005043B0FBF1F005B0704708494843FAE70C
:100CA00002030405060708090A0B0C0D0E0F1010AD
:100CB000010200000010024000127A0000093D000D
:100CC0002DE9F84F04006FD02078BE4DC00747D003
:100CD0006868C0F38100012807D06868C0F381000C
:100CE000022809D16868C00306D52868800337D573
:100CF00060680028E7D033E06068B0F5803F0BD033
:100D000010B1B0F5A02F11D0286820F480302860F1
:100D1000286820F4802002E0286840F480302860B1
:100D2000606888B1FFF760FD064609E0286840F476
:100D300080202860F0E7FFF757FD801B642873D8F8
:100D400028688003F7D50BE0FFF74EFD064604E068
:100D5000FFF74AFD801B6428F1D828688003F7D488
:100D60002078DFF8648280074FF0010A4FF0000915
:100D700039D5686810F00C0F07D06868C0F381009F
:100D8000022809D16868C00306D42868800714D5F2
:100D90002069012808D110E02069B0B1C8F800A08E
:100DA000FFF722FD064605E007E1FFF71DFD801B6A
:100DB0000228C4D828688007F7D52868616920F020
:100DC000F80040EAC10028600DE0C8F80090FFF785
:100DD0000BFD064604E0FFF707FD801B022823D821
:100DE00028688007F7D4207800072CD57748A169B8
:100DF000D9B1C0F800A0FFF7F7FC064604E0FFF702
:100E0000F3FC801B02280FD8686A8007F7D570486A
:100E10004FF4FA510068B0FBF1F0009000BF009869
:100E2000411E0091FAD20EE07CE0C0F80090FFF77E
:100E3000DBFC064604E0FFF7D7FC801B022871D8D4
:100E4000686A8007F7D4207840075BD5E8690027F7
:100E5000C00008D4E86940F08050E861E8690127E3
:100E600000F0805000905B480168C90511D401680A
:100E7000834641F480710160FFF7B6FC064604E04A
:100E8000FFF7B2FC801B64284CD8DBF80000C005DB
:100E9000F6D5E06801280AD008B1052813D0286AE1
:100EA00020F001002862286A20F0040002E0286A8D
:100EB00040F001002862E06841F2883B88B1FFF70A
:100EC00093FC064609E0286A40F004002862EEE739
:100ED000FFF78AFC811B59455BD8286A8007F7D544
:100EE0000BE0FFF781FC064604E0FFF77DFC811B69
:100EF00059454ED8286A8007F7D41FB1E86920F019
:100F00008050E861E069A8B36968C1F381010229F2
:100F100046D00228484606D0C8F86000FFF764FCB7
:100F2000044639E035E04746C8F86000FFF75CFC4E
:100F3000064604E0FFF758FC801B022829D82868E1
:100F40008001F7D4206AB0F5803F05D16868A168B8
:100F500020F4003008436860D4E908010843696858
:100F600021F4741108436860C7F860A0FFF73CFCE7
:100F7000044605E023E0FFF737FC001B022808D8F1
:100F800028688001F7D51AE0FFF72EFC001B022825
:100F900002D90320BDE8F88F28688001F4D40EE060
:100FA0000128F7D06868226A00F48031914204D1A8
:100FB000616A00F47010884201D00120EAE7002045
:100FC000E8E7000000100240000042428004424274
:100FD000C00000200070004070B5040003D0607CA9
:100FE000002610B105E0012070BD2674204600F0F7
:100FF00043F802206074204600F058F8042578BBBE
:10100000204601F000FB58BB2068416821F0070131
:101010004160A06820B11748016821F0010101601A
:101020001448001F0168A26821F460711143016037
:101030006068411C04D10120FFF77AFC80B1401E9A
:1010400021688A6822F00F0242EA10428A60216811
:10105000CA6860F30F02CA60204601F0BAFA08B10C
:101060006574C0E7E67301206073A07360740020AC
:1010700070BD0000306C004008B500680849884227
:101080000DD1FFF74FFC0748C16941F00061C16114
:10109000C069054900F0006000900120086008BDAB
:1010A00000280040001002403C04424270B5040099
:1010B0000AD02068416821F008014160FFF794FBE5
:1010C00005464FF47A7608E0012070BDFFF78CFBEF
:1010D000401BB04201D9032070BD20684068000762
:1010E000F4D5002070BD70B5040009D0606A0025F9
:1010F00040B125616561A56294F8510040B10CE0F2
:10110000012070BD6068B0F5827FF4D0E561F2E740
:1011100084F85050204600F03FF8022084F8510037
:101120002068016821F040010160A088218900F455
:10113000827001F404410843A18901F4006108436D
:10114000217C01F002010843217D01F001010843E7
:10115000218B01F400710843217F01F0380108431D
:1011600094F8201001F080010843218D01F4005112
:10117000084321680860A069042101EA1040216841
:1011800048602068C16921F40061C1616565012082
:1011900084F85100002070BD30B585B00024009463
:1011A00001940294039400681449884223D114489E
:1011B000816941F480518161816901F48051049118
:1011C000816941F00401816180690E4D00F00400E5
:1011D0000490A02000900220019003200390694613
:1011E0002846FFF715FA4020CDE900046946284655
:1011F0000294FFF70DFA05B030BD00000030014049
:1012000000100240000801402DE9F84F04464068F4
:1012100000261D46904689464FF0040BB0F5827FAC
:1012200001D1A06888B194F85000012817D001209E
:1012300084F85000FFF7D8FA074694F851004FF0B1
:10124000000A01280DD002267EE084F851B00093F8
:1012500013460A46204600F036F9BDE8F88F022012
:10126000FBE7B9F1000F6ED0B8F1000F6BD084F836
:1012700051B0C4F854A0C4F83890A4F83C80A4F845
:101280003E80C4F830A0A4F834A0A4F836A0C4F876
:1012900040A0C4F844A0A068B0F5004F09D1206870
:1012A000016821F0400101602068016821F480415B
:1012B000016020680168490603D4016841F04001DB
:1012C0000160E068B8B131E020688168C90709D0E1
:1012D000007BA16B0870A06B401CA063E08F401ED8
:1012E000E08708E0FFF780FAC01BA84202D3681C21
:1012F00001D031E07DB3E08F0028E5D119E020680E
:101300008168C90709D0C068A16B0880A06B801CE8
:10131000A063E08F401EE08708E0FFF765FAC01B7E
:10132000A84202D3681C01D016E0A5B1E08F0028C6
:10133000E5D13A462946204601F07FF908B1202040
:101340006065606D00B10126012084F8510084F8C9
:1013500050A0304681E7FFE70326F5E72DE9F84F77
:10136000044690F8500000261D4690468946012804
:101370000ED04FF0010B84F850B0FFF735FA074656
:1013800094F851004146B246012804D0022694E068
:101390000220BDE8F88FB9F1000F74D0B8F1000F4A
:1013A00071D0032084F85100C4F854A0C4F83090E0
:1013B000A4F83480A4F83680C4F838A0A4F83CA07F
:1013C000A4F83EA0C4F844A0C4F840A0A068B0F5BA
:1013D000004F09D12068026822F0400202602068B4
:1013E000026842F48042026020680268520603D418
:1013F000026842F040020260E068B0F5006F606889
:1014000003D028B3012923D03FE008B101291BD123
:10141000206B21680088C86006E020688168890721
:1014200009D5216B0988C160206B801C2063E08E88
:10143000401EE08608E0FFF7D7F9C01BA84202D3A0
:10144000681C01D030E075B3E08E0028E5D11FE0C4
:10145000206B21680078087306E02068816889079E
:1014600009D5216B09780173206B401C2063E08E45
:10147000401EE08609E0FFF7B7F9C01BA84203D37E
:10148000681C02D010E017E06DB1E08E0028E4D1B6
:101490003A462946204601F0FEF808B12020606552
:1014A000A06818B106E0FFE7032606E02068C168DF
:1014B00080680090606D00B1012684F851B084F816
:1014C00050A0304665E72DE9F84F044690F85000EB
:1014D00001250A9E1F4692468B464FF000080128C0
:1014E0000ED0012084F85000FFF77EF9814694F871
:1014F0005100616801280CD0B1F5827F07D102E06C
:101500000220BDE8F88FA16809B9042801D00220A3
:10151000B6E0BBF1000F27D0BAF1000F24D01FB303
:1015200094F85100042802D0052084F851000020CE
:101530006065C4F838A0E787A787C4F830B0E786AD
:10154000A7862064606420680168490603D40168A6
:1015500041F040010160E068B0F5006F606805D0BF
:10156000E8B3012F43D079E0012089E008B1012FD1
:1015700034D1206B21680088C860206B801C2063F8
:10158000E08E401EE08629E02068816889070DD53D
:10159000E18E59B1012D09D1216B0988C160206B01
:1015A000801C2063E08E401EE08600252068816854
:1015B000C9070BD0E18F49B1C068A16B0880A06B4F
:1015C000801CA063E08F401EE0870125FFF70CF927
:1015D000A0EB0900B04201D3701C50D100E006E03E
:1015E000E08E0028D0D1E08F0028CDD13CE0206BE8
:1015F000216800780873206B401C2063E08E401E39
:10160000E0862BE02068816889070DD5E18E59B10D
:10161000012D09D1216B09780173206B401C2063D7
:10162000E08E401EE086002520688168C9070BD047
:10163000E18F49B1C068A16B0870A06B401CA0632A
:10164000E08F401EE0870125FFF7CEF8A0EB0900F0
:10165000B04202D3701C01D011E086B1E08E0028A8
:10166000D0D1E08F0028CDD14A463146204601F046
:1016700012F838B120204FF00108606508E003201F
:10168000804605E0A06818B92068C16880680090AD
:10169000012084F85100002084F85000404630E7D3
:1016A00010B5401EB0F1807F01D3012010BD4FF076
:1016B000E02460610F21601701F0C4F90020A061EF
:1016C00007202061002010BD7047704770B590F86A
:1016D0003C20012A26D0012580F83C50022280F8C7
:1016E0003D2002685368946823F070060B6833430A
:1016F00053600D4B02689A4208D0B2F1804F05D07A
:101700000A4B9A4202D00A4B9A4204D1496824F00B
:1017100080031943916080F83D50002180F83C100F
:10172000084670BD022070BD002C0140000400403E
:101730000008004010B5040003D094F83D0010B13B
:1017400007E0012010BD002084F83C00204600F096
:101750001FF8022084F83D00211D206800F0CCFD18
:10176000012084F8460084F83E0084F83F0084F8A5
:10177000400084F8410084F8420084F8430084F873
:10178000440084F8450084F83D00002010BD0000AE
:1017900008B50068144A154990420ED1886940F492
:1017A000006088618869002200F4006000901146A2
:1017B0001820FFF785F8182010E0B0F1804F11D104
:1017C000C86940F00100C861C869002200F001004A
:1017D000009011461C20FFF773F81C20BDE808405C
:1017E000FFF760B808BD0000002C01400010024067
:1017F00090F83D10012901D001207047022180F8A6
:101800003D100168CA6842F00102CA6000680B49D5
:10181000884208D0B0F1804F05D00949884202D0F3
:101820000849884204D1816801F00701062903D0E4
:10183000016841F00101016000207047002C014067
:10184000000400400008004070B5044690F83C00D9
:10185000012817D0012584F83C50022084F83D006F
:101860002068826822F0770222F47F428260086852
:10187000502830D00DDC20284DD005DC98B310283E
:101880003BD148E0022070BD302844D0402834D1FC
:1018900039E0602828D0702806D0B0F5805F2CD0C1
:1018A000B0F5005F29D10AE0CB68D1E901212068B9
:1018B00000F058FD2068816841F0770109E0CB68AD
:1018C000D1E90121206800F04DFD2068816841F4D4
:1018D0008041816011E0CA684968206800F050FFCB
:1018E0005021206807E016E0CA684968206800F0C7
:1018F00058FF6021206800F03BFF84F83D50002035
:1019000084F83C0070BDCA684968206800F038FF60
:1019100040212068EFE7226801461046EBE7704758
:1019200070B50446006801694FF00005C943890796
:1019300015D4C168C943890711D4E91E016101208A
:101940002077206880698007204602D0FFF7E7FFF4
:1019500004E000F098F8204600F096F8257720681B
:101960000169C943490717D4C168C943490713D45A
:101970006FF004010161022020772068806910F473
:10198000407F204602D0FFF7CAFF04E000F07BF85A
:10199000204600F079F8257720680169C9430907D6
:1019A00016D4C168C943090712D46FF00801016158
:1019B000042020772068C0698007204602D0FFF706
:1019C000AEFF04E000F05FF8204600F05DF82577F8
:1019D00020680169C943C90617D4C168C943C9064B
:1019E00013D46FF010010161082020772068C069CE
:1019F00010F4407F204602D0FFF791FF04E000F092
:101A000042F8204600F040F8257720680169C94374
:101A1000C90708D1C168C943C90704D1891E01613A
:101A2000204600F033F820680169C943090609D44B
:101A3000C168C943090605D46FF0800101612046E1
:101A4000FFF742FE20680169C943490609D4C1680D
:101A5000C943490605D46FF040010161204600F0FA
:101A600043F920680169C94389060BD4C168C94399
:101A7000890607D46FF0200101612046BDE870405F
:101A8000FFF723BE70BD7047704700002DE9F05F7F
:101A90000068B0F1804F6ED18C4CC8216068401C4A
:101AA00090FBF1F201FB12006060A0684FF47A71C4
:101AB00090FBF1F201FB120000286FD12069234650
:101AC000401C00EBD07121F00101401A2061E06858
:101AD0000A21401C90FBF1F201FB12000025E0609E
:101AE00025707B496570A570E57001F1400001F13A
:101AF000A008D3E90961DFF8DCA1DFF8DCB1774F9A
:101B00002A464FF0010CBB5C4C2B06D04D2B07D066
:101B1000522B08D04F2B09D00CE084F800C00DE008
:101B200084F801C009E084F802C006E0BB185B78C5
:101B3000442B21D0521C052AE5DB05B30022521CA0
:101B4000062AFCDB0022521C042AFCDB0939093678
:101B5000C4E9096100F086FF4046616A00F082FF37
:101B6000E06A01F04FFA52465B4601F061F901F07C
:101B700019F8E06258E0A7E084F803C0DDE7627876
:101B80006AB10022521C062AFCDB0931093EC4E975
:101B9000096100F067FF4046616A3AE07FE04B4828
:101BA0004B4EA778D0E90713D0E9052006F12009AC
:101BB00006F160088036A7B109310933C4E907137B
:101BC0000938093AC4E905200F46E06A01F01AFA1B
:101BD00052465B4601F018F800F0E4FF3946E06237
:101BE0000AE0E778C7B1093204F11807093009396A
:101BF000093B626187E80B00354800F033FF484637
:101C0000216A00F02FFF4046616900F02BFF30464B
:101C1000A16900F027FF07E00020401C0628FCDB3C
:101C20000020401C0428FCDBA16AB420002901DA52
:101C3000A56202E0B42900DDA062616A002901DA30
:101C4000656202E0B42900DD6062E169002901DA21
:101C5000E56103E0902901DD9021E161216A00291D
:101C600001DA256202E0B42900DD206261692429DD
:101C700002DA2421616102E0B42900DD6061A1691A
:101C8000002901DAA56102E0B42900DDA061144950
:101C9000E06A884202DB1349884200DDE162A06805
:101CA00042F21071401C90FBF1F201FB1200A060A7
:101CB0000020401C0428FCDB0020401C0628FCDB24
:101CC000BDE8F05F00F0ACBBBDE8F09F0000002075
:101CD000480100209A9999999999B93F08020020E2
:101CE0000000A0400000C8417047704770470000E6
:101CF000F8B5026804461068D168536910F00F0FF8
:101D00004FF0000553D003F0010601F490773743FC
:101D10005FD0C20705D0CA0503D5226C42F001028C
:101D20002264420705D5DA0703D0226C42F0020292
:101D30002264820705D5DA0703D0226C42F0040240
:101D40002264020707D501F02002324303D0226C3F
:101D500042F008022264226C002A34D0800604D5A6
:101D6000880602D5204600F0AFFD20684069216C4E
:101D7000C0F38010090700D430B3204600F00CFEF9
:101D80002068416949061BD5416921F04001416144
:101D9000A06BA8B158494163A06BFEF7DBFA00289D
:101DA00011D0A06B416B01B0BDE8F040084783063D
:101DB0000FD58B060DD52046BDE8F84000F084BD58
:101DC0002046FFF793FFF8BD2046FFF78FFF2564FD
:101DD000F8BD266B2023012E52D1C60650D5CE0663
:101DE0004ED5106850680090506940062AD5A16B06
:101DF000086840680004000CEAD0A68D8642E7D946
:101E0000E0858869202818D0D06820F48070D060E0
:101E10002068416921F0010141612068416921F098
:101E20004001416184F83E3025632068C16821F09B
:101E30001001C160A06BFEF76AFAA08DE18D401A17
:101E400081B219E0A08DE18D401A81B2E08D0028A9
:101E5000BED00029BCD0D06820F49070D06020683B
:101E6000426922F00102426184F83E302563206815
:101E7000C26822F01002C2602046FFF736FFF8BDAC
:101E800005062BD50D0629D594F83D002128F6D15D
:101E9000A068B0F5805F01D12069B0B1206A411C13
:101EA0002162216800784860E08C401E0004000C2C
:101EB000E084E4D12068C16821F08001C16020681D
:101EC000C16841F04001C160F8BD206A0088C0F3DC
:101ED00008005060206A801C2062E5E74006F3D5C8
:101EE0004806F1D5D168204621F04001D16084F840
:101EF0003D3000F0AEF8F8BD352A000870B504009A
:101F000004D094F83D00002510B106E0012070BD1A
:101F100084F83C50204600F023F8242084F83D004B
:101F20002068C16821F40051C160204600F070FCB7
:101F30002068016921F4904101612068416921F024
:101F40002A0141612068C16841F40051C1602564E3
:101F5000202084F83D0084F83E00002070BD000081
:101F600070B586B000240646009401940294039450
:101F70000068224988423FD12148C16941F480214B
:101F8000C161C16901F480210491816941F00801B6
:101F9000816180691B4D00F0080004904FF480605F
:101FA0000090022001900320039069462846FEF726
:101FB0002FFBE814CDE90004694628460294FEF799
:101FC00027FB124D1048C5E900048020C5E90240F6
:101FD0002C616C61AC612846EC61FEF7B3FA08B184
:101FE000FEF793F9B5630022114627206E62FEF7D3
:101FF00067FC2720FEF756FC06B070BD0048004085
:1020000000100240000C014030000240AC030020F0
:1020100090F83E30202B0ED159B152B190F83C309F
:10202000012B08D0012380F83C300023036300F02B
:10203000A3B9012070470220704700000122024925
:102040000248FFF7E5BF00000802002068030020F7
:1020500070477047FEE70000094808B5416941F044
:10206000010141614069002200F001000090114629
:102070000D20FEF725FCBDE808400D20FEF712BC40
:10208000001002402DE9F04F85B000242E48009446
:10209000019402940394816941F020018161816976
:1020A00001F020010491816941F010018161816991
:1020B00001F010010491816941F00401816181699D
:1020C00001F004010491816941F008018161806996
:1020D000DFF8789000F0080041F6E4550490002203
:1020E00029464846FEF77AFBDFF864A048F210075D
:1020F000002239465046FEF771FBDFF858B041F236
:10210000FF38002241465846FEF768FB009502263C
:1021100001250396CDE9015469464846FEF778FA51
:1021200000970396CDE9015469465046FEF770FAD0
:10213000CDF800800396CDE9015469465846FEF774
:1021400067FA05B0BDE8F08F0010024000100140B2
:1021500000080140000C01400A4810B50849016020
:102160004FF0FF3141604FF480718160FEF734FF22
:10217000002803D0BDE81040FEF7C7B810BD00002E
:10218000002800406C0200200F4810B50D49016086
:102190004FF48271416000218160C1604FF4007290
:1021A0000161C0E90512C1610162416281620A21D7
:1021B000C162FEF798FF002803D0BDE81040FEF78B
:1021C000A4B810BD003001408002002010B586B0D8
:1021D0000024174800940194029403940494134932
:1021E000059401600821C0E901146421C0E90314C9
:1021F00044618461FFF79EFA08B1FEF786F84FF458
:102200008050009069460A48FFF71EFB08B1FEF7B0
:102210007CF8049404A906480594FFF757FA0028AF
:1022200001D0FEF772F806B010BD0000002C01408E
:10223000D802002010B586B00024164800940194FE
:102240000294039404944FF08041059401600721A7
:10225000C0E901146321C0E903148461FFF76AFA3D
:1022600008B1FEF752F84FF48050009069460948D3
:10227000FFF7EAFA08B1FEF748F8049404A9054804
:102280000594FFF723FA002801D0FEF73EF806B0C8
:1022900010BD0000200300200C4810B50A49016061
:1022A0004FF4E1314160002181600C22C160C0E93E
:1022B00004128161C161FFF721FE002803D0BDE84F
:1022C0001040FEF722B810BD00480040680300200F
:1022D000FEE7FEE770477047FEF78CBA70470000D4
:1022E0000148FFF71DBB0000D80200200148FFF79E
:1022F00017BB000020030020F0B50268164C174DF4
:10230000174E4FF08047A04205D0B84203D0A842F4
:1023100001D0B04203D122F070034A681A43A042B0
:1023200005D0B84203D0A84201D0B04203D122F474
:102330004073CA681A434B6922F080021A43026054
:102340008A68C2620A688262A04201D10969016397
:1023500001214161F0BD0000002C0140000400405B
:102360000008004010B5846842EA032224F47F4448
:102370000A432243826010BD37B582B01346039AE8
:1023800082628385002504460564222084F83E008D
:10239000A16B13488862A16B1248C862A16B1248F6
:1023A0000863A06B45632168A06B091DFEF7F8F870
:1023B000206801684168009184F83C50C16841F48C
:1023C0008071C1602068416941F00101416120686C
:1023D000416941F04001416105B0002030BD00007D
:1023E000DB2900087F290008C72700080148FFF7FC
:1023F0007FBC000068030020FEE7000070B5064DBA
:10240000064E002406EB441055F8341000F02AFB69
:10241000641C062CF6DB70BD300000204801002053
:102420002DE9F0412C4C4FF40071CD0060682B4F2A
:102430000F2814DA01223846FEF7D0F901220821CC
:102440003846FEF7CBF9012229463846FEF7C6F991
:10245000012220213846FEF7C1F9012213E00022B3
:102460003846FEF7BBF9002208213846FEF7B6F9D8
:10247000002229463846FEF7B1F9002220213846CD
:10248000FEF7ACF9002202213846FEF7A7F9606892
:10249000112801DA012200E0002240213846FEF72F
:1024A0009DF960680E4E0D2801DA012200E000223D
:1024B00001213846FEF792F9606800F0DBFDE16A21
:1024C00000F0F0FD01D2012200E000222946304652
:1024D000BDE8F041FEF782B900000020000C014089
:1024E0000010014030B593B028216846FDF76EFE1C
:1024F00014210AA8FDF76AFE00240F940920009019
:1025000010944FF48030019011940125CDE90654C8
:1025100012946846FEF7D4FB08B172B6FEE70F20AE
:102520000A90CDE90B540D9400210AA80E94FEF7F1
:10253000D5FA08B172B6FEE74FF40070CDE90F503E
:102540000FA8FEF757FA002801D072B6FEE713B0C5
:1025500030BD00007CB511A0114C00680090002235
:1025600010212046FEF73AF94FF47A752B460122E6
:1025700069460C48FEF7F2FE2B46012201A90948E4
:10258000FEF742FE012210212046FEF727F99DF8B2
:102590000400C00700D002207CBD00000500000040
:1025A000000801408002002030B590F8405001241E
:1025B000AC40C56B6C60046863604368102B0368B3
:1025C00003D099600068C26030BD9A600068C16045
:1025D00030BD70B505460068416821F010014160CA
:1025E000FEF702F904464FF47A7606E0FEF7FCF8AF
:1025F000001BB04201D9032070BD286840688006E6
:10260000F4D5002070BD70B50546FEF7EDF8044620
:102610004FF47A7606E0FEF7E7F8001BB04201D9E6
:10262000032070BD286840688006F4D5286841689A
:1026300041F010014160002070BDF8B504464068CB
:102640004FF48273984217D1A0684FF48065B0F5BB
:10265000004F01D0A8420FD12068066826F040063E
:1026600006606068984207D1A068A84204D1009231
:102670000B460022012103E000920B46002280213C
:10268000204600F019F8002804D0606D40F02000CA
:1026900060650320F8BD38B50B4600920446002261
:1026A000802100F009F8002804D0606D40F020007F
:1026B0006065032038BD00002DE9F8431E469146B1
:1026C00088460446089DFEF78FF8401B351AFEF732
:1026D0008BF8074625480068C0F3CB30684338E0E4
:1026E000701C37D0FEF780F8C01BA84203D215B18A
:1026F000009860B32CE02068416821F0E00141605F
:102700006068B0F5827F0BD1A068B0F5004F02D0B1
:10271000B0F5806F04D12068016821F040010160AC
:10272000A06AB0F5005F09D12068016821F400516A
:1027300001602068016841F400510160012084F8C3
:102740005100002084F850000320BDE8F8830025E4
:10275000401E00902068816838EA010004D0002003
:102760004845BDD10020F0E70120F9E7C000002076
:10277000826822F070020A4342F0070181607047CC
:1027800010B5046A036A23F001030362836923F02E
:10279000F00343EA021324F00A020A43836102624F
:1027A00010BD10B5036A23F0100303628469036A45
:1027B00024F4704444EA023223F0A00343EA0111F6
:1027C0008261016210BD70B5446A2068406994F866
:1027D0003D10C0F3C0100025212904D118B1E584B3
:1027E000204600F0F1F82068406994F83E10C0F3EC
:1027F0008010222904D118B1E585204600F0CCF8DC
:10280000206C40F0100020642046FFF76FFA70BD86
:1028100070B5044600680169E26821F44051114333
:102820000161A16820690143606901432068C268B1
:1028300041F20C639A430A43C26020684169A2696D
:1028400021F44071114341611E492068884202D140
:10285000FEF7F0F901E0FEF7DDF900EBC00101EB56
:102860000011606864228000B1FBF0F3B3FBF2F367
:102870006FF018067343B1FBF0F5B1FBF0F605EB12
:102880008305322303EB0515B5FBF2F5B6FBF2F633
:1028900005F0F00505EB0615B1FBF0F6B1FBF0F025
:1028A000B0FBF2F06FF01801484306EB800003EB39
:1028B0000010B0FBF2F0216800F00F00284488609F
:1028C00070BD00000038014008B590F83E10222984
:1028D00001D0022008BD81684FF48053994201D194
:1028E000026922B1826A99421BD049B10AE00268AA
:1028F000816A5268C2F308020A80816A891C08E072
:10290000016971B10168496801F07F011170816A44
:10291000491C8162C18D491E0904090CC18503D07F
:1029200019E001684968F1E70168CA6822F02002ED
:10293000CA600168CA6822F48072CA6001684A6984
:1029400022F001024A61202180F83E10016B01292A
:1029500003D0FFF773FB002008BD0021016301686D
:10296000CA6822F01002CA6001680A68D20602D55D
:102970000A6849680091818DFFF7B7F9EBE710B558
:10298000406A016B012902D0FFF762FB10BD818D07
:102990004908FFF7AAF910BD0168CA6822F49072CD
:1029A000CA6001684A6922F001024A61016B01298B
:1029B00004D10168CA6822F01002CA60202180F8A0
:1029C0003E100021016370470168CA6822F0C0020E
:1029D000CA60202180F83D10704710B50146406A5A
:1029E0000968096889061BD40021C1850168CA6885
:1029F00022F48072CA6001684A6922F001024A61C9
:102A000001684A6922F040024A61202180F83E10A4
:102A1000016B012904D10168CA6822F01002CA6062
:102A2000016B012902D0FFF709FB10BD818DFFF773
:102A30005CF910BD10B5406A0021C185C184FFF763
:102A400055F910BD0907090E002804DB00F1E0204C
:102A500080F80014704700F00F0000F1E02080F8CB
:102A6000141D704710B50446B5290AD2A068081A8B
:102A70000921606090FBF1F0401D00F06DF9C4E9A0
:102A8000040110BD10B5029C8161828384600360E3
:102A900010BD000038B52B4C2B4D0023A0680090D2
:102AA000082229462948FFF7EDFFE06800902748F3
:102AB0000023AA1429462030FFF7E4FF2069009084
:102AC00022480023202229464030FFF7DBFF6069BF
:102AD00000901E480023022229466030FFF7D2FFF3
:102AE00000241B4D1948234620222946803000949B
:102AF000FFF7C8FF1548002340222946A030009464
:102B0000FFF7C0FF1148002380222946C0300094FF
:102B1000FFF7B8FF0D4800232A152946E03000943E
:102B2000FFF7B0FF0023EA1429460A480094FFF794
:102B3000A9FF08480023AA15294620300094FFF772
:102B4000A1FF38BD70000020000C0140C80000202B
:102B500000100140C8010020FDF754FEFFF7C2FC41
:102B6000FFF790FAFFF7F8FAFFF730FBFFF762FB89
:102B7000FFF70AFBFFF770FAFFF78EFB0122064909
:102B80000648FFF745FA0648FEF732FEFDF794FBCC
:102B9000FFF734FCFEE70000080200206803002075
:102BA0002003002021F00042A2F16052B2F5801F04
:102BB00001F0004328BFD2F17F6C0BD95FEA001C03
:102BC00043EAC20242EB507018BF704728BF20F0A2
:102BD00001007047B2F5801FBCBF184670474FEA2E
:102BE000410C1CF5001F02D2084600F0D5BA70B5A2
:102BF00000F0C9F800000089FFF7F6BF4FF0004071
:102C0000A0F580007047000010B591EA030F48BF9F
:102C100083F0004300F11481841A71EB030C05D298
:102C2000121943EB0C03001B61EB0C01DFF824E1EC
:102C30004FEA1154A4EB135C1EEA430F18BF9EEA3F
:102C4000445F73D023EA0E03DCF1200E21EA045125
:102C500043F4801332D322FA0CFE10EB0E0023FA59
:102C60000CFE41EB0E01CCF1200E03FA0EFE10EB30
:102C70000E0051F10001B1F5801FCCF1200E32D2CF
:102C800001EB045112FA0EF2BDE8104058BF704734
:102C9000401C38BF5FEA420218BF7047002814BFCB
:102CA00020F0010041F100014FEA410313F5001F3C
:102CB00038BF7047A1F1C04100F0B3B8012A43EB1F
:102CC0000302ACF1200CDCF11F0E32BF4FF0000EFE
:102CD00023FA0CF310EB030041EB0451B4EB115F4A
:102CE000D0D0A1EB045101F5801149085FEA300012
:102CF00001EB04510ED350F1000038BF12FA0EFE62
:102D000008D1BDE81040C9E7401C38BF5FEA420265
:102D1000CAD1C3E7BDE810404FEA410313F5001FD5
:102D200038BF7047A1F1C04100F07BB89EEA445F14
:102D300008D011EA5E0FBDE8104004BF01F0004169
:102D400000207047BDE8104070B500F01CF800BFCF
:102D500064FBBE3E0000E0FF10F0004248BF40426E
:102D6000B0FA80F310FA03F10AD0C3F11D0303F5A2
:102D700080634FEA415002EB035202EBD1217047CE
:102D80004FF0000070470EF1020E2EF0030E5EF8B9
:102D9000046B364205D4012A43EB030515F5001FE9
:102DA00012D8012841EB010C1CF5001F0CD80ED1E4
:102DB0004FEAD17C15F5001F0CEB4C0C0CF1020C0A
:102DC00008BF4CEBD37C04E04FF0080C01E04FEA65
:102DD000D37C0CEB4C0526FA05F606F00706B6F197
:102DE000040C06D20EEB860CBDE870404CF0010CD2
:102DF0006047DFE80CF0090B02024FF000414FF092
:102E00000000A1F5002170BD19461046012851EBC4
:102E1000010418BFD4F5001484BF002001F0004164
:102E200070BD0808A0F500114FEA3101704700009D
:102E300010B591EA030F48BF83F000433FF5ECAEB5
:102E4000841A71EB030C07D212198CF0004C43EB7F
:102E50000C03001B61EB0C01DFF8A4E14FEA1154F5
:102E6000A4EB135C1EEA430F18BF9EEA445F00F018
:102E7000B08023EA6E03524221EA0451C3EB6E0391
:102E800038BF5B1EDCF1200E25D322FA0CFE10EBBE
:102E90000E0043FA0CFE41EB0E01CCF1200E03FABA
:102EA0000EFE10EB0E0051F10001CCF1200E29D4E2
:102EB00012FA0EF201EB0451BDE8104058BF704702
:102EC000401C1CBFB2F1004F704700280CBF491CCA
:102ED00020F00100704712EB020E43EB030218BF13
:102EE0004FF0010E4EEA4202ACF1200CDCF11E0E56
:102EF00054D943FA0CFE10EB0E0051F1FF31CCF126
:102F00001E0ED5D50EF1010E12FA0EFE404141EB18
:102F1000010101EB445C5FEA5C5C10D910EBDE70F0
:102F200001EB045138BFBEF1004FBDE8104018BF9F
:102F3000704700280CBF491C20F00100704730D2B8
:102F40004FEAD42C11F5001124F400641BD0B1FA1F
:102F500081F20B3AA41AA41ED2F12003914030FA58
:102F600003F31943904001EBCC71002C01EB0451A9
:102F7000BDE81040A8BF704701F1C0414FF000000C
:102F800001F000417047B0FA80F310FA03F100D16C
:102F900010BDE41A173C4805C90AE4E701EB0451E7
:102FA00010BD491001EB0451BDE810404FEA30005C
:102FB00002E04FF0000170474A0008BF0042F8D01D
:102FC000B2F5001F28BF704701F000414FF000002C
:102FD00070479EEA445F07D011EA5E0FBDE81040DB
:102FE00004BF002100207047BDE8104070B5FFF716
:102FF000CAFE00BF40DFF63E83F000411046704736
:103000000000E0FF43004FEAD30C4FEA3C0C434082
:103010001FBF40070CF1605113F0FE4F70471CF0CA
:10302000006F03D100200CF0004170470CF000430A
:1030300043EA507010B540EACC0000F067F800BFDA
:10304000000000924FEA0001FFF7EBBE4FF0004195
:103050004FF00000A1F500217047401058BFC0F1AB
:103060004040491058BFC1F140418142EFF3008018
:103070007047000010F0004148BF4042B0FA80F3B2
:1030800010FA03F2C3F19D030BD051EAC35101EBD7
:103090001220530638BF704700F1010008BF20F02E
:1030A0000100704750EA010C00F113801CF5000F7D
:1030B00058BFBCF5000F01D48842704707D710F500
:1030C000000F58BF11F5000F15D488427047894290
:1030D00070471CF5000F04D5BCF5000FF7D58142F1
:1030E00070474FF0807C1CEB400F38BF1CEB410F4A
:1030F00001D28142704710B500F008F892244900CF
:103100004FF000504FF08051FFF7A7BF0EF1020EB5
:103110002EF0030E5EF8044B244204D44FEA410221
:10312000B2F17F4F11D84FEA4003B3F17F4F0CD873
:103130000ED14FEAD07CB2F17F4F0CEB4C0C0CF16E
:10314000020C08BF4CEBD17C04E04FF0080C01E00E
:103150004FEAD17C0CEB4C0324FA03F404F007048F
:10316000B4F1040C06D20EEB840CBDE810404CF018
:10317000010C6047DFE80CF0070802024FF0004046
:10318000A0F5800010BD0846420018BFD2F1807241
:1031900088BF00F0004010BDFF2141EAD050C005BB
:1031A0007047000000000000000001020304060751
:1031B000080900000000010203040000E0310008DB
:1031C00000000020C400000028010008A43200080C
:1031D000C40000208C09000044010008B9F8FFFF7A
:1031E00000000000000000000000000000000000DF
:1031F000000000005A0000005A0000005A000000C1
:103200005A0000005A0000005A000000000020414F
:103210005A0000005A0000005A0000005A00000046
:103220005A0000005A0000005A0000005A00000036
:103230005A0000005A0000005A0000005A00000026
:10324000000000000000000000000000000000007E
:10325000090000000000000009000000F7FFFFFF68
:103260000000000000000000EEFFFFFF1200000061
:10327000000000000000000000000000000000004E
:10328000000000000000000000000000000000003E
:10329000000000000100000010000000000000001D
:0432A0000024F40012
:04000005080000ED02
:00000001FF
