:020000040800F2
:10000000380800208D010008831A00086B180008CA
:10001000811A000859030008291B0008000000008D
:10002000000000000000000000000000871A000827
:100030005B03000800000000851A0008891A000808
:10004000A7010008A7010008A7010008A7010008F0
:10005000A7010008A7010008A7010008A7010008E0
:10006000A7010008A7010008A7010008A7010008D0
:10007000A7010008A7010008A7010008A7010008C0
:10008000A7010008A7010008A7010008A7010008B0
:10009000A7010008A7010008A7010008A7010008A0
:1000A000911A0008A7010008A7010008A70100088D
:1000B0009D1A0008A7010008A7010008A701000871
:1000C000A7010008A7010008A7010008A701000870
:1000D000A7010008A7010008A7010008A701000860
:1000E000A7010008A7010008A701000800F002F816
:1000F00000F03CF80AA090E8000C82448344AAF186
:100100000107DA4501D100F031F8AFF2090EBAE883
:100110000F0013F0010F18BFFB1A43F0010318473B
:100120007825000098250000103A24BF78C878C1CF
:10013000FAD8520724BF30C830C144BF04680C60ED
:10014000704700000023002400250026103A28BF35
:1001500078C1FBD8520728BF30C148BF0B60704739
:100160001FB500F05DF81FBD10B510BD00F06AF8B6
:100170001146FFF7F5FF01F099FE00F088F803B48F
:10018000FFF7F2FF03BC00F091F800000948804738
:1001900009480047FEE7FEE7FEE7FEE7FEE7FEE769
:1001A000FEE7FEE7FEE7FEE704480549054A064B81
:1001B000704700008D1A0008ED000008380200208A
:1001C0003808002038040020380400204FF00002D6
:1001D00000B5134694469646203922BFA0E80C503D
:1001E000A0E80C50B1F12001BFF4F7AF090728BF18
:1001F000A0E80C5048BF0CC05DF804EB890028BF94
:1002000040F8042B08BF704748BF20F8022B11F0BC
:10021000804F18BF00F8012B704770477047704738
:1002200070B5064C7C44064D7D4403E020682044B4
:100230008047241DAC42F9D170BD0000902400001D
:1002400090240000754600F02BF8AE460500694684
:10025000534620F00700854618B020B5FFF7A4FFED
:10026000BDE820404FF000064FF000074FF00008B7
:100270004FF0000B21F00701AC46ACE8C009ACE838
:10028000C009ACE8C009ACE8C0098D46704710B59C
:100290000446AFF300802046BDE81040FFF76FBF73
:1002A00000487047D4010020704700000149182021
:1002B000ABBEFEE72600020038B50CA00C4C00686F
:1002C000009000221021204600F04CF94FF47A7380
:1002D00002226946074800F0FAFE0122102120465A
:1002E00000F040F9BDE8384001F056BC66990000C6
:1002F00000080140EC000020F8B5054603208DF809
:100300000000080C8DF80100080A8DF80200104F5B
:1003100014468DF8031000221021384600F022F90F
:100320004FF47A763346042269460A4800F0CFFE3D
:10033000A2B233462946074800F01CFE08B101204E
:10034000F8BD01221021384600F00CF90020F8BD5C
:1003500000080140EC000020FEE7704772B6FEE79F
:1003600070B5044600F004F90546601C02D004484C
:100370000078044400F0FCF8401BA042FAD370BDA2
:10038000100000202DE9F84FDFF8B891002409F1A2
:10039000040A0AF1040B23460F270BF1040EC9E0EF
:1003A0000125A5402A40AA427DD1674ED1F804C05C
:1003B000ACEB0608B44532D014DCBCF1030F3AD0E4
:1003C00009DCBCF1000F2AD0BCF1010F1CD0BCF13C
:1003D000020F31D11DE0BCF1110F17D0BCF1120F8B
:1003E0002AD119E0B8F5881F19D006DCB8F5803F8E
:1003F00015D0B8F5801F1FD111E0B8F5001F0ED041
:10040000B8F5041F18D10AE0CB6815E0CB681B1DB6
:1004100012E0CB6808330FE0CB680C330CE08B683C
:100420002BB1012B4FF0080303D0456104E00423F6
:1004300002E0056100E00023FF2A01D8064601E042
:1004400000F104064FEA840501D9A5F12005D6F88C
:10045000008007FA05FC28EA0C0803FA05F548EACB
:100460000508C6F800804D68ED0062D5374DAE69CD
:1004700046F00106AE61AD6924F0030605F0010502
:100480000095334D06EB050CDCF80850A607360F37
:1004900007FA06F825EA0805DFF8B880404503D1D9
:1004A0004FF0000817E044E0DFF8AC80404502D18F
:1004B0004FF001080FE0DFF8A480404502D14FF073
:1004C000020808E0DFF89880404502D14FF00308A9
:1004D00001E04FF0040808FA06F848EA0508CCF8ED
:1004E00008804D68D9F80060ED034D4601D51643EC
:1004F00000E096432E604D68DAF80060AD03554683
:1005000001D5164300E096432E604D68DBF800608D
:10051000ED025D4601D5164300E096432E604D681E
:10052000DEF80060AD02754601D5164300E0964343
:100530002E60641C0D682A46E5407FF431AFBDE8AB
:10054000F88F00000004014000001110001002406C
:100550000000014000080140000C01400010014073
:10056000001401400AB1016170470904FBE7000073
:100570000148806870470000100000200248816830
:10058000027811448160704710000020074810B5C0
:10059000016841F010010160032000F075F80F20A0
:1005A00000F006F800F024F8002010BD0020024002
:1005B00070B50D4D04464FF47A712878B1FBF0F018
:1005C0000A490968B1FBF0F000F025FF48B9102C8A
:1005D00007D200222146501E00F036F800206C6041
:1005E00070BD012070BD0000100000201C00002024
:1005F0000C4808B5816941F001018161816901F010
:1006000001010091C16941F08051C161C06900F0F0
:10061000805000900448416821F0E06141F0007191
:10062000416008BD0010024000000140002809DBC5
:1006300000F01F02012191404009800000F1E020FC
:10064000C0F8001170470000F0B40E4B1B680C4658
:10065000C3F30223C3F10705042D00D90425191D96
:10066000072901D2002300E0DB1E012606FA05F16E
:10067000491E214099409E40761E16403143F0BCF1
:1006800001F0AFBB0CED00E0064900F0070208687E
:100690004FF6FF03184040EA0220034A1043086067
:1006A000704700000CED00E00000FA050149012050
:1006B0000862704700000E4210B529A401461DCC07
:1006C00086B08DE81D002AA02A4C00680490002006
:1006D000012923D002293AD010291DD1616822684E
:1006E000D20119D5C1F38342C9031DF8020009D50F
:1006F000616804AAC1F34041515C1F4AB2FBF1F1A9
:10070000484301E01D4948436168490204D4400060
:100710005FF00301B0FBF1F006B010BD226AC2F336
:100720000121012903D1920701D5C803F4E7022969
:1007300005D1626A920702D549F64040ECE70329E9
:10074000EAD121688903E7D54FF22440E4E700F0BD
:1007500023F96168C1F38131491C4900DAE70000DF
:1007600002030405060708090A0B0C0D0E0F1010F2
:10077000010200000010024000127A0000093D0052
:100780002DE9F84305460078354CC00754D0E069A0
:100790000026C00008D4E06940F08050E061E069C4
:1007A000012600F0805000902E480168C90512D43F
:1007B0000168804641F480710160FFF7D9FE074669
:1007C00005E000BFFFF7D4FEC01B642823D8D8F88B
:1007D0000000C005F6D5206A10F4407021D0A98829
:1007E00001F4407181421CD0206A1F49012220F48B
:1007F00040700A6000220A602062C00711D0FFF733
:10080000B7FE074641F2883808E000BFFFF7B0FEA8
:10081000C11B414502D90320BDE8F883206A800747
:10082000F4D5206A696820F44070084320621EB144
:10083000E06920F08050E0612878800705D5606885
:10084000A96820F44040084360602878C00605D5B8
:100850006068E96820F48000084360600020DBE7FE
:100860000010024000700040400442422DE9F04771
:100870000F46050061D0434E306800F00700B842D3
:1008800009D2306820F0070038433060306800F04B
:100890000700B84251D128683B4C810712D5400768
:1008A00003D5606840F4E06060602878000703D5F5
:1008B000606840F4605060606068A96820F0F000F3
:1008C000084360602878C00728D06868012810D0E5
:1008D0002168022810D0890700292EDA616821F0EA
:1008E000030101436160FFF743FE804641F288390E
:1008F0000DE021688903EFE78901EDE7FFF738FE96
:10090000A0EB0801494502D90320BDE8F0876068E3
:10091000696800F00C00B0EB810FEFD1306800F097
:100920000700B8420BD9306820F007003843306028
:10093000306800F00700B84201D00120E5E72878D0
:10094000400705D56068E96820F4E060084360600E
:100950002878000706D56068296920F4605040EACD
:10096000C100606000F028F86168084AC1F3031113
:10097000515CC8400649086006480068FFF718FE49
:100980000020C2E70020024000100240802600083C
:100990001C00002014000020044805490068496834
:1009A000044AC1F3C221515CC84070471C000020BA
:1009B000001002409026000812A185B00FC98DE8F2
:1009C0000F0014A0144A006804905168134811F0F5
:1009D0000C0312D0042B10D0082B0ED1C1F383438B
:1009E000C9031DF803000AD5516804AAC1F34041A8
:1009F000515C0A4A5043B0FBF1F005B0704708491A
:100A00004843FAE702030405060708090A0B0C0D20
:100A10000E0F1010010200000010024000127A00B8
:100A200000093D002DE9F84F040070D02078C04D3A
:100A3000C00749D06868C0F38100012807D0686802
:100A4000C0F38100022809D16868C00306D5286870
:100A5000800339D560680028E7D035E06068B0F5DC
:100A6000803F0BD010B1B0F5A02F11D0286820F432
:100A700080302860286820F4802002E0286840F454
:100A800080302860606890B1FFF772FD06460AE08A
:100A9000286840F480202860F0E700BFFFF768FD79
:100AA000801B642873D828688003F7D50CE0FFF713
:100AB0005FFD064605E000BFFFF75AFD801B642876
:100AC000F0D828688003F7D420789A4E80074FF03A
:100AD00001094FF0000839D5686810F00C0F07D0F5
:100AE0006868C0F38100022809D16868C00306D491
:100AF0002868800714D52069012808D110E02069F2
:100B0000B0B1C6F80090FFF733FD074605E00AE1F3
:100B1000FFF72EFDC01B0228C4D828688007F7D530
:100B20002868616920F0F80040EAC10028600DE003
:100B3000C6F80080FFF71CFD074604E0FFF718FD2C
:100B4000C01B022823D828688007F7D42078000724
:100B50002CD57948A169D9B1C0F80090FFF708FDFC
:100B6000074604E0FFF704FDC01B02280FD8686A9F
:100B70008007F7D571484FF4FA510068B0FBF1F0E7
:100B8000009000BF0098411E0091FAD20EE080E074
:100B9000C0F80080FFF7ECFC074604E0FFF7E8FC34
:100BA000C01B022875D8686A8007F7D420784007F0
:100BB00060D5E8690027C00008D4E86940F080509B
:100BC000E861E869012700F0805000905C48016806
:100BD000C90513D40168834641F480710160FFF7B1
:100BE000C7FC824606E000BFFFF7C2FCA0EB0A008C
:100BF00064284ED8DBF80000C005F5D5E068012870
:100C00000AD008B1052813D0286A20F00100286214
:100C1000286A20F0040002E0286A40F001002862FF
:100C2000E06841F2883B98B1FFF7A2FC82460BE0F6
:100C3000286A40F004002862EEE700BFFFF798FC46
:100C4000A0EB0A0159455AD8286A8007F6D50CE06E
:100C5000FFF78EFC824605E0FFF78AFCA0EB0A0155
:100C600059454CD8286A8007F6D41FB1E86920F0AE
:100C70008050E861E06988B36968C1F381010229A5
:100C800044D00228C6F8608004D0FFF771FC044607
:100C900038E034E0FFF76CFC074604E0FFF768FC3F
:100CA000C01B02282BD828688001F7D4206AB0F531
:100CB000803F05D16868A16820F40030084368606F
:100CC000D4E908010843696821F474110843686095
:100CD000C6F86090FFF74CFC044606E025E000BF34
:100CE000FFF746FC001B022809D828688001F7D5C9
:100CF0001BE000BFFFF73CFC001B022802D90320C9
:100D0000BDE8F88F28688001F4D40EE00128F7D000
:100D10006868226A00F48031914204D1616A00F46B
:100D20007010884201D00120EAE70020E8E70000C7
:100D30000010024000004242800442421C00002099
:100D40000070004070B5040003D0607C002610B134
:100D500005E0012070BD2674204600F043F8022013
:100D60006074204600F058F8042578BB204600F057
:100D700058FF58BB2068416821F007014160A06816
:100D800020B11748016821F0010101601448001FDB
:100D90000168A26821F46071114301606068411C20
:100DA00004D10120FFF788FC80B1401E21688A68C9
:100DB00022F00F0242EA10428A602168CA6860F39A
:100DC0000F02CA60204600F011FF08B16574C0E749
:100DD000E67301206073A0736074002070BD000092
:100DE000306C004008B50068084988420DD1FFF713
:100DF0005DFC0748C16941F00061C161C0690549F6
:100E000000F0006000900120086008BD002800404C
:100E1000001002403C04424270B504000AD0206831
:100E2000416821F008014160FFF7A2FB05464FF43D
:100E30007A7608E0012070BDFFF79AFB401BB042B4
:100E400001D9032070BD206840680007F4D5002058
:100E500070BD70B5040009D0606A002540B12561FD
:100E60006561A56294F8510040B10CE0012070BDAD
:100E70006068B0F5827FF4D0E561F2E784F8505005
:100E8000204600F03FF8022084F8510020680168F5
:100E900021F040010160A088218900F4827001F4F2
:100EA00004410843A18901F400610843217C01F059
:100EB00002010843217D01F001010843218B01F467
:100EC00000710843217F01F03801084394F8201095
:100ED00001F080010843218D01F40051084321688D
:100EE0000860A069042101EA104021684860206878
:100EF000C16921F40061C1616565012084F8510078
:100F0000002070BD30B585B0002400940194029497
:100F1000039400681449884223D11448816941F43C
:100F200080518161816901F480510491816941F0AE
:100F30000401816180690E4D00F004000490A0203E
:100F40000090022001900320039069462846FFF795
:100F500019FA4020CDE90004694628460294FFF7BB
:100F600011FA05B030BD0000003001400010024011
:100F7000000801402DE9F84F0446406800259846D6
:100F800016460F464FF0040BB0F5827F01D1A068E2
:100F900088B194F85000012818D0012084F850003E
:100FA000FFF7E6FA814694F851004FF0000A012855
:100FB0000ED0022582E084F851B013460A4620463E
:100FC000CDF8008000F036F9BDE8F88F0220FBE78D
:100FD000002F72D0002E70D084F851B0C4F854A005
:100FE000A763A687E687C4F830A0A4F834A0A4F8C5
:100FF00036A0C4F840A0C4F844A0A068B0F5004FE3
:1010000009D12068016821F0400101602068016871
:1010100021F48041016020680168490603D4016819
:1010200041F040010160E068D8B139E02068816892
:10103000C90709D0007BA16B0870A06B401CA0639E
:10104000E08F401EE0870CE0FFF792FAA0EB090169
:10105000414503D3B8F1FF3F03D036E0B8F1000FAC
:1010600033D0E08F0028E1D11DE020688168C907F6
:1010700009D0C068A16B0880A06B801CA063E08FC2
:10108000401EE0870CE0FFF773FAA0EB0901414531
:1010900003D3B8F1FF3F03D017E0B8F1000F14D02D
:1010A000E08F0028E1D14A464146204600F0D3FDBA
:1010B00008B120206065606D00B10125012084F831
:1010C000510084F850A028467EE70325F6E72DE975
:1010D000F84F044690F8500000271D4616468946F2
:1010E00001280DD04FF0010B84F850B0FFF740FA03
:1010F000804694F85100BA46012804D0022793E0B4
:101100000220BDE8F88FB9F1000F73D0002E71D026
:10111000032084F85100C4F854A0C4F83090A68687
:10112000E686C4F838A0A4F83CA0A4F83EA0C4F811
:1011300044A0C4F840A0A068B0F5004F09D12068D1
:10114000016821F0400101602068016841F480419C
:10115000016020680168490603D4016841F040013C
:101160000160E068B0F5006F606803D030B3012E15
:1011700024D041E008B1012E1CD1206B21680088E9
:10118000C86006E020688168890709D5216B098855
:10119000C160206B801C2063E08E401EE08609E069
:1011A000FFF7E6F9A0EB0800A84202D3681C01D0C3
:1011B00031E07DB3E08E0028E4D120E0206B21688F
:1011C0000078087306E020688168890709D5216BDB
:1011D00009780173206B401C2063E08E401EE0867E
:1011E0000AE0FFF7C5F9A0EB0800A84203D3681C8A
:1011F00002D010E017E06DB1E08E0028E3D1424646
:101200002946204600F055FD08B120206065A06801
:1012100018B106E0FFE7032706E02068C168806890
:101220000090606D00B1012784F851B084F850A09F
:10123000384666E72DE9F84F044690F8500000273D
:101240000A9E1D4692468B464FF0010901280ED09A
:10125000012084F85000FFF78BF9804694F8510084
:10126000616801280CD0B1F5827F07D102E002202D
:10127000BDE8F88FA16809B9042801D00227C2E0AF
:10128000BBF1000F27D0BAF1000F24D01DB394F8A2
:101290005100042802D0052084F851000020606528
:1012A000C4F838A0E587A587C4F830B0E586A586E0
:1012B0002064606420680168490603D4016841F035
:1012C00040010160E068B0F5006F606805D0E8B3E8
:1012D000012D46D07FE0012795E008B1012D39D1DD
:1012E000206B21680088C860206B801C2063E08E22
:1012F000401EE0862EE02068816889070FD5E18EC8
:1013000069B1B9F1010F0AD1216B0988C160206B65
:10131000801C2063E08E401EE0864FF000092068AC
:101320008168C9070CD0E18F51B1C068A16B0880FA
:10133000A06B801CA063E08F401EE0874FF0010986
:10134000FFF716F9A0EB0800B04200E009E001D376
:10135000701C50D1E08E0028CDD1E08F0028CAD17A
:101360003FE0206B216800780873206B401C2063ED
:10137000E08E401EE0862EE02068816889070FD548
:10138000E18E69B1B9F1010F0AD1216B09780173BE
:10139000206B401C2063E08E401EE0864FF0000969
:1013A00020688168C9070CD0E18F51B1C068A16B7A
:1013B0000870A06B401CA063E08F401EE0874FF0D8
:1013C0000109FFF7D5F8A0EB0800B04202D3701C6A
:1013D00001D010E07EB1E08E0028CDD1E08F002852
:1013E000CAD142463146204600F063FC28B10127AD
:1013F0002020606507E0032705E0A06818B9206891
:10140000C16880680090012084F85100002084F8B1
:10141000500038462CE710B5401EB0F1807F01D354
:10142000012010BD4FF0E02460610F21601700F033
:10143000D8FC0020A06107202061002010BD70476B
:101440007047000070B590F83C20012A26D0012496
:1014500080F83C40022280F83D2003685A689D686D
:1014600022F070060A6832435A600D4B02689A42B5
:1014700008D0B2F1804F05D00A4B9A4202D00A4BF5
:101480009A4204D1496825F080031943916080F89D
:101490003D40002180F83C10084670BD022070BD20
:1014A000002C0140000400400008004010B504007A
:1014B00003D094F83D0010B107E0012010BD0020DA
:1014C00084F83C00204600F01FF8022084F83D001C
:1014D000211D206800F0E8FA012084F8460084F815
:1014E0003E0084F83F0084F8400084F8410084F80E
:1014F000420084F8430084F8440084F8450084F8EE
:101500003D00002010BD000008B5154A01681548CF
:1015100091420ED1816941F40061816180690022AC
:1015200000F40060009011461820FFF78DF8182095
:1015300010E0B1F1804F11D1C16941F00101C161E9
:10154000C069002200F00100009011461C20FFF746
:101550007BF81C20BDE80840FFF768B808BD000014
:10156000002C01400010024090F83D10012901D0EC
:1015700001207047022180F83D100168CA6842F0DE
:101580000102CA6000680B49884208D0B0F1804F60
:1015900005D00949884202D00849884204D18168AF
:1015A00001F00701062903D0016841F00101016043
:1015B00000207047002C014000040040000800405B
:1015C00070B5044690F83C00012817D0012584F836
:1015D0003C50022084F83D002068826822F07702A7
:1015E00022F47F4282600868502830D00DDC202829
:1015F0004DD005DC98B310283BD148E0022070BDE7
:10160000302844D0402834D139E0602828D07028D0
:1016100006D0B0F5805F2CD0B0F5005F29D10AE08C
:10162000CB68D1E90121206800F074FA2068816854
:1016300041F0770109E0CB68D1E90121206800F091
:1016400069FA2068816841F48041816011E0CA68CC
:101650004968206800F0A2FB5021206807E016E0EE
:10166000CA684968206800F0AAFB6021206800F081
:101670008DFB84F83D50002084F83C0070BDCA68A2
:101680004968206800F08AFB40212068EFE7226863
:1016900001461046EBE7704770B5044600680169E3
:1016A0004FF00005C943890715D4C168C9438907AC
:1016B00011D4E91E0161012020772068806980072C
:1016C000204602D0FFF7E7FF04E000F098F820463C
:1016D00000F096F8257720680169C943490717D4B7
:1016E000C168C943490713D46FF0040101610220A6
:1016F00020772068806910F4407F204602D0FFF7F1
:10170000CAFF04E000F07BF8204600F079F8257766
:1017100020680169C943090716D4C168C94309078C
:1017200012D46FF008010161042020772068C0699D
:101730008007204602D0FFF7AEFF04E000F05FF81C
:10174000204600F05DF8257720680169C943C90685
:1017500017D4C168C943C90613D46FF010010161E1
:10176000082020772068C06910F4407F204602D00E
:10177000FFF791FF04E000F042F8204600F040F847
:10178000257720680169C943C90708D1C168C943E1
:10179000C90704D1891E0161204600F033F8206892
:1017A0000169C943090609D4C168C943090605D4BA
:1017B0006FF0800101612046FFF741FE206801695A
:1017C000C943490609D4C168C943490605D46FF025
:1017D00040010161204600F047F820680169C943D3
:1017E00089060BD4C168C943890607D46FF020016C
:1017F00001612046BDE87040FFF722BE70BD704712
:101800007047000010B50068B0F1804F27D1144830
:10181000C8220168491C91FBF2F302FB131101601D
:1018200041684FF47A62491C91FBF2F302FB1311F9
:10183000416059B98168491C8160C168491CCA1757
:1018400001EB527222F00702891AC1605A21054841
:1018500000F0EEFABDE81040024800F0D3BA10BD27
:1018600000000020200000207047FEE72DE9F04F27
:1018700085B000242E480094019402940394816959
:1018800041F020018161816901F0200104918169A9
:1018900041F010018161816901F0100104918169B9
:1018A00041F004018161816901F0040104918169C1
:1018B00041F0080181618069DFF8789000F008004C
:1018C00041F6E4550490002229464846FEF74AFEB8
:1018D000DFF864A048F21007002239465046FEF7B0
:1018E00041FEDFF858B041F2FF3800224146584629
:1018F000FEF738FE0095022601250396CDE9015436
:1019000069464846FEF73EFD00970396CDE901542F
:1019100069465046FEF736FDCDF800800396CDE9C6
:10192000015469465846FEF72DFD05B0BDE8F08F1D
:10193000001002400010014000080140000C01406E
:101940000A4810B5084901604FF0FF3141604FF47B
:1019500080718160FFF7F6F9002803D0BDE81040E0
:10196000FEF7FCBC10BD000000280040D80000209D
:101970000F4810B50D4901604FF48271416000219C
:101980008160C1604FF400720161C0E90512C1615C
:101990000162416281620A21C162FFF75AFA00289E
:1019A00003D0BDE81040FEF7D9BC10BD00300140A7
:1019B000EC00002010B586B0002417480094019474
:1019C0000294039404941349059401600821C0E92A
:1019D00001146421C0E9031444618461FFF766FDCA
:1019E00008B1FEF7BBFC4FF48050009069460A48EE
:1019F000FFF7E6FD08B1FEF7B1FC049404A9064820
:101A00000594FFF71FFD002801D0FEF7A7FC06B0E4
:101A100010BD0000002C01404401002010B586B02C
:101A200000241648009401940294039404944FF007
:101A30008041059401600721C0E901141321C0E928
:101A400003148461FFF732FD08B1FEF787FC4FF401
:101A50008050009069460948FFF7B2FD08B1FEF7D3
:101A60007DFC049404A905480594FFF7EBFC0028CD
:101A700001D0FEF773FC06B010BD00008C01002001
:101A8000FEE7FEE770477047FEF778BD704700003D
:101A90000148FFF701BE0000440100200148FFF7A4
:101AA000FBBD00008C010020F0B50268164B174CFE
:101AB000174D4FF08047984205D0B84203D0A0425E
:101AC00001D0A84203D122F070064A6832439842FE
:101AD00005D0B84203D0A04201D0A84203D122F4DD
:101AE0004074CA6822434C6922F08002224302609B
:101AF0008A68C2620A688262984201D109690163F8
:101B000001214161F0BD0000002C014000040040B3
:101B10000008004010B5846842EA032224F47F44A0
:101B20000A432243826010BDFEE730B593B02821FE
:101B30006846FEF74BFB14210AA8FEF747FB00247A
:101B40000F940920009010944FF48030019011946C
:101B50000125CDE9065412946846FEF763FF08B1EB
:101B600072B6FEE70F200A90CDE90B540D940021C8
:101B70000AA80E94FEF77AFE08B172B6FEE74FF49B
:101B80000070CDE90F500FA8FEF7FAFD002801D034
:101B900072B6FEE713B030BD7CB511A0114C0068E1
:101BA0000090002210212046FEF7DCFC4FF47A75ED
:101BB0002B46012269460C48FFF789FA2B46012281
:101BC00001A90948FFF7D6F9012210212046FEF7A6
:101BD000C9FC9DF80400C00700D002207CBD0000B5
:101BE0000500000000080140EC00002070B504462C
:101BF0000068416821F010014160FEF7B9FC05461C
:101C00004FF47A7607E000BFFEF7B2FC401BB0420B
:101C100001D9032070BD206840688006F4D50020FB
:101C200070BD70B50446FEF7A3FC05464FF47A7606
:101C300006E0FEF79DFC401BB04201D9032070BDB9
:101C4000206840688006F4D52068416841F01001A2
:101C50004160002070BDF8B5044640684FF48273BF
:101C6000984217D1A0684FF48065B0F5004F01D0BD
:101C7000A8420FD12068066826F04006066060681A
:101C8000984207D1A068A84204D100920B460022D6
:101C9000012103E000920B4600228021204600F043
:101CA00019F8002804D0606D40F020006065032022
:101CB000F8BD38B50B46009204460022802100F0A2
:101CC00009F8002804D0606D40F020006065032012
:101CD00038BD00002DE9F8431E469146884604466B
:101CE000089DFEF745FC401B351AFEF741FC0746F0
:101CF00025480068C0F3CB30684338E0701C37D00B
:101D0000FEF736FCC01BA84203D215B1009860B3A1
:101D10002CE02068416821F0E00141606068B0F586
:101D2000827F0BD1A068B0F5004F02D0B0F5806F74
:101D300004D12068016821F040010160A06AB0F57B
:101D4000005F09D12068016821F40051016020681A
:101D5000016841F400510160012084F85100002025
:101D600084F850000320BDE8F8830025401E009051
:101D70002068816838EA010004D000214945BDD1BE
:101D80000020F0E70121F9E71C000020826822F022
:101D900070020A4342F007018160704710B5036A80
:101DA000046A24F001040462846924F0F00444EA23
:101DB000021423F00A020A438461026210BD10B5C6
:101DC000036A23F0100303628369046A23F47043F7
:101DD00043EA023224F0A00343EA01118261016266
:101DE00010BD0907090E002804DB00F1E02080F88F
:101DF0000014704700F00F0000F1E02080F8141D7F
:101E00007047000010B504460848006800F0A6FAC4
:101E1000D4E9042300F0BAFAA18BA06901D201220F
:101E200000E00022BDE81040FEF79CBB000000204F
:101E300010B50446B5290ED2A068081A606000F0FB
:101E40008DFA054A054B00F031F90022044B00F0F1
:101E500079F8C4E9040110BDCDCCCCCCCCCCFC3F8E
:101E60000000394010B5029C816182838460036068
:101E700010BD000038B50A4C0A4D002320680090C0
:101E8000102229460848FFF7EDFF606800900648D9
:101E900000236A1529462030FFF7E4FF38BD000013
:101EA00094000020000C014020000020FEF76EFB93
:101EB000FFF73BFEFFF7DAFCFFF742FDFFF77AFD85
:101EC000FFF7ACFDFFF754FD1B48FFF74DFBFEF796
:101ED000F3F93220FEF744FA342218491848FEF785
:101EE0000BFA17490020032201F134036FF02F048D
:101EF0000D5C2B2D02D02D2D0CD018E00D1890FB71
:101F0000F2F6AF786D78303D05EB850504EB4505BD
:101F10003D440AE00D1890FBF2F6AF786D78303D45
:101F200005EB850507EB4505651B43F82650C01CEE
:101F30003328DDDBFEE700008C01002030F8FF00D5
:101F40006000002010B591EA030F48BF83F0004302
:101F500000F1B482841A71EB030C05D2121943EB21
:101F60000C03001B61EB0C01DFF824E14FEA115474
:101F7000A4EB135C1EEA430F18BF9EEA445F73D0C4
:101F800023EA0E03DCF1200E21EA045143F480130E
:101F900032D322FA0CFE10EB0E0023FA0CFE41EBBA
:101FA0000E01CCF1200E03FA0EFE10EB0E0051F1E3
:101FB0000001B1F5801FCCF1200E32D201EB0451AB
:101FC00012FA0EF2BDE8104058BF7047401C38BFEF
:101FD0005FEA420218BF7047002814BF20F00100DA
:101FE00041F100014FEA410313F5001F38BF70476C
:101FF000A1F1C04100F054BA012A43EB0302ACF155
:10200000200CDCF11F0E32BF4FF0000E23FA0CF350
:1020100010EB030041EB0451B4EB115FD0D0A1EB06
:10202000045101F5801149085FEA300001EB0451C9
:102030000ED350F1000038BF12FA0EFE08D1BDE8F1
:102040001040C9E7401C38BF5FEA4202CAD1C3E76B
:10205000BDE810404FEA410313F5001F38BF704739
:10206000A1F1C04100F01CBA9EEA445F08D011EA19
:102070005E0FBDE8104004BF01F000410020704732
:10208000BDE8104070B500F0BDF900BF64FBBE3E76
:102090000000E0FF491058BFC1F140415B1058BF3C
:1020A000C3F140438B42EFF3008070472DE9C041FC
:1020B00030B4DFF8A0C23CEA111418BF3CEA131494
:1020C00000F0EC8081EA03051CEA111444EAD5749F
:1020D00018BF1CEA131500F0C780A4EB05044FF0ED
:1020E000004545EAC12145EAC32341EA505143EA8C
:1020F000525304F17F74994204F500344FEAC02032
:102100004FEAC22208BF904200F09C804FEA13655C
:102110000FF24016765D4FEA134506FB05F7C7F14F
:10212000807706FB07F74FEAD737A7FB03687642AD
:10213000C8F58038A7FB06CE38BFA8F1010807FB19
:1021400008E64FF0000EA6FB028CE6FB03CEDCF1A6
:10215000000CCEF1004E38BFAEF1010EA6FB0C58BC
:102160004FF000074FF00005E6FB0E87A1FB08C605
:10217000A0FB07CE16EB0E0645F10005E1FB076557
:1021800015F1E04E7EBFA4F580345FEA46066D414E
:1021900016F1800745F100054FEA17274FEA06665A
:1021A00047EA0567A6F1DE46B6F1805F4FEA1525DE
:1021B0001FD9384624F0010C05EBC471BCF1FE6F49
:1021C00001EB0C1102D8F0BCBDE8008124425CBFD9
:1021D00001F5801E9EEAC47F02D4F0BCBDE80081F8
:1021E000244238D4F0BCA1F1C041BDE8004100F068
:1021F00057B94FEAD22242EA43524FEAD323A7FB10
:1022000002864FEAD02040EA415007FB03661EEAEF
:102210000E0F4FEAD12105FB026658BFA6EB005610
:10222000B6EB00564FEA520E4EEAC37E18EB0E0E86
:1022300056EB530EBDD518EB02085E417F1C55F1DD
:102240000005B6E74FF480154FF000074FF0000689
:102250004FF00008ADE7F0BC4FF0000001F1C041C5
:1022600001F00041BDE8008111EA0C1F0CEA1315D2
:1022700000D00CE013EA0C1F00F025804FF00000A6
:10228000F0BC81EA030101F00041BDE80081F0BC2F
:10229000BDE8004181EA030100F002B9F0BCBDE8ED
:1022A000004170B500F0AEF8097EFC3E00F007B8C2
:1022B00081EA03014FF0000001F00041704781EA1C
:1022C000030100F0EDB8F0BCBDE800414FF00000A4
:1022D00021497047FFFDFBF9F7F5F4F2F0EEEDEB65
:1022E000E9E8E6E4E3E1E0DEDDDBDAD8D7D5D4D314
:1022F000D1D0CFCDCCCBCAC8C7C6C5C4C2C1C0BF60
:10230000BEBDBCBBBAB9B8B7B6B5B4B3B2B1B0AF65
:10231000AEADACABAAA9A8A8A7A6A5A4A3A3A2A149
:10232000A09F9F9E9D9C9C9B9A9999989797969504
:1023300095949393929191908F8F8E8E8D8C8C8BA0
:102340008B8A898988888787868585848483838228
:10235000828181800000FF070000F87F10F00042BA
:1023600048BF4042B0FA80F310FA03F10AD0C3F13B
:102370001D0303F580634FEA415002EB035202EB69
:10238000D12170474FF000007047000051EA030C64
:1023900017D41CF5801F58BFBCF5801F00F10680C4
:1023A000994218BF704708BF9042704707D711F590
:1023B000801F58BF13F5801F19D499427047894276
:1023C00070471CF5801F08D5BCF5801FF7D58B42E0
:1023D00018BF704708BF824270474FF4001C1CEBC7
:1023E000410F38BF1CEB430F01D28B42704770B5D1
:1023F00000F008F8922449004FF000514FF080534C
:10240000FFF748BE0EF1020E2EF0030E5EF8046BCD
:10241000364205D4012A43EB030515F5001F12D8F7
:10242000012841EB010C1CF5001F0CD80ED14FEA1E
:10243000D17C15F5001F0CEB4C0C0CF1020C08BF05
:102440004CEBD37C04E04FF0080C01E04FEAD37C66
:102450000CEB4C0526FA05F606F00706B6F1040C5F
:1024600006D20EEB860CBDE870404CF0010C6047C4
:10247000DFE80CF0090B02024FF000414FF00000C2
:10248000A1F5002170BD19461046012851EB010449
:1024900018BFD4F5001484BF002001F0004170BDC6
:1024A0000808A0F500114FEA3101704710B591EA14
:1024B000030F48BF83F000433FF54CAD841A71EB26
:1024C000030C07D212198CF0004C43EB0C03001BD9
:1024D00061EB0C01DFF8A4E14FEA1154A4EB135CAB
:1024E0001EEA430F18BF9EEA445F00F0B08023EA63
:1024F0006E03524221EA0451C3EB6E0338BF5B1EE8
:10250000DCF1200E25D322FA0CFE10EB0E0043FA6C
:102510000CFE41EB0E01CCF1200E03FA0EFE10EB87
:102520000E0051F10001CCF1200E29D412FA0EF266
:1025300001EB0451BDE8104058BF7047401C1CBF60
:10254000B2F1004F704700280CBF491C20F0010079
:10255000704712EB020E43EB030218BF4FF0010E5F
:102560004EEA4202ACF1200CDCF11E0E54D943FAC3
:102570000CFE10EB0E0051F1FF31CCF11E0ED5D543
:102580000EF1010E12FA0EFE404141EB010101EB8A
:10259000445C5FEA5C5C10D910EBDE7001EB045127
:1025A00038BFBEF1004FBDE8104018BF704700288B
:1025B0000CBF491C20F00100704730D24FEAD42CE8
:1025C00011F5001124F400641BD0B1FA81F20B3A2A
:1025D000A41AA41ED2F12003914030FA03F3194348
:1025E000904001EBCC71002C01EB0451BDE8104090
:1025F000A8BF704701F1C0414FF0000001F0004159
:102600007047B0FA80F310FA03F100D110BDE41A5C
:10261000173C4805C90AE4E701EB045110BD491015
:1026200001EB0451BDE810404FEA300002E04FF0EA
:10263000000170474A0008BF0042F8D0B2F5001F01
:1026400028BF704701F000414FF0000070479EEA3C
:10265000445F07D011EA5E0FBDE8104004BF0021BF
:1026600000207047BDE8104070B5FFF7CBFE00BFFB
:1026700040DFF63E83F00041104670470000E0FF67
:102680000000000000000000010203040607080922
:102690000000000001020304BC2600080000002026
:1026A0002000000028010008DC260008200000208F
:1026B0001808000044010008BDF7FFFF00000000FB
:1026C0000000000000000000000000000100000009
:0C26D00010000000000000000024F400D6
:04000005080000ED02
:00000001FF
